:03000000020100FA
:1001000012810CC37800790012811CF8128104124C
:10011000811CB40A5AE4742B12810212811CF91258
:100120008104743D128102E928F812013EE4128133
:100130001CB40A2B12810CE812013E80D90075F024
:100140000A84C425F012810422A9F012013E7452DF
:10015000128102E912810422B40AB402011622B407
:100160000B4C12810CE812013E740B02016F22B499
:100170000B66E4742D12810212811CF91281047441
:100180003D12810289F0E8C395F0406AF802012A25
:1001900022B40DC4E4742F12810212811CF9128161
:1001A00004743D12810289F0E8E5F00201C8B40C44
:1001B0005E12810CE812013E740C0201D822E88420
:1001C000F812014902012E22B400F3120223128117
:1001D0000CE812013E020191B40CB6E4742A1281BB
:1001E0000212811CF9128104743D12810288F0E927
:1001F000A4F802012A22F404F9742D128102E9C341
:1002000012013E741412811212022302010022B460
:100210000D0D12810CE812013E740D0201912202B3
:1002200001162212810C744512810274521281024D
:100230007452128102744F1281027452128102743C
:040240001412811201
:00000001FF
