:03000000020100FA
:0C000B00758C4CDE061201931201983235
:1001000012810C12811C7A00FD1201A9ED75F00A12
:10011000A4F912811C29FAF9EAFB1201FF743A12C0
:10012000810212811C7A02FD1201A9ED75F00AA468
:10013000F912811C29FAF9EAFC1201FF740A1281F2
:100140001212810C758901758C4C758A00D28CB2A3
:10015000977E64D2AFD2A97F14308DFD758C4CC2CE
:100160008DDFF60CEC120182ECB43CEB0B7400FC5E
:10017000120182EBB43CE07400FBFC12018202012C
:10018000572212810CEB1201FF743A128102EC1219
:1001900001FF227E64B29722B2957A28308DFD75D8
:1001A0008C4CC28DDAF6B29522B4000122B4010162
:1001B00022B4020122B4030122B4040122B40501D5
:1001C00022740512811212810C744512810274523C
:1001D0001281027452128102744F128102745212FF
:1001E0008102740A128112EAB40004020100221290
:1001F000810CEB1201FF743A128102020122227576
:0A020000F00A84C425F012810422E4
:00000001FF
